{
  "contractName": "InitializeProduct",
  "abi": [
    {
      "constant": true,
      "inputs": [],
      "name": "productCount",
      "outputs": [
        {
          "name": "",
          "type": "uint256"
        }
      ],
      "payable": false,
      "stateMutability": "view",
      "type": "function",
      "signature": "0xe0f6ef87"
    },
    {
      "constant": true,
      "inputs": [
        {
          "name": "_id",
          "type": "string"
        }
      ],
      "name": "getProductById",
      "outputs": [
        {
          "name": "",
          "type": "bytes32"
        }
      ],
      "payable": false,
      "stateMutability": "view",
      "type": "function",
      "signature": "0x2352d4aa"
    },
    {
      "constant": false,
      "inputs": [
        {
          "name": "_batchID",
          "type": "string"
        },
        {
          "name": "_productDescription",
          "type": "string"
        },
        {
          "name": "_id",
          "type": "string"
        },
        {
          "name": "_origin",
          "type": "string"
        }
      ],
      "name": "newProduct",
      "outputs": [],
      "payable": false,
      "stateMutability": "nonpayable",
      "type": "function",
      "signature": "0x18651f58"
    },
    {
      "constant": true,
      "inputs": [
        {
          "name": "_batchID",
          "type": "string"
        },
        {
          "name": "_productDescription",
          "type": "string"
        },
        {
          "name": "_id",
          "type": "string"
        },
        {
          "name": "_origin",
          "type": "string"
        }
      ],
      "name": "createChecksum",
      "outputs": [
        {
          "name": "",
          "type": "bytes32"
        }
      ],
      "payable": false,
      "stateMutability": "pure",
      "type": "function",
      "signature": "0x9fcf5a6a"
    }
  ],
  "bytecode": "0x60806040526000805534801561001457600080fd5b50610839806100246000396000f3fe6080604052600436106100615763ffffffff7c010000000000000000000000000000000000000000000000000000000060003504166318651f5881146100665780632352d4aa146102b05780639fcf5a6a14610375578063e0f6ef87146105bd575b600080fd5b34801561007257600080fd5b506102ae6004803603608081101561008957600080fd5b8101906020810181356401000000008111156100a457600080fd5b8201836020820111156100b657600080fd5b803590602001918460018302840111640100000000831117156100d857600080fd5b91908080601f016020809104026020016040519081016040528093929190818152602001838380828437600092019190915250929594936020810193503591505064010000000081111561012b57600080fd5b82018360208201111561013d57600080fd5b8035906020019184600183028401116401000000008311171561015f57600080fd5b91908080601f01602080910402602001604051908101604052809392919081815260200183838082843760009201919091525092959493602081019350359150506401000000008111156101b257600080fd5b8201836020820111156101c457600080fd5b803590602001918460018302840111640100000000831117156101e657600080fd5b91908080601f016020809104026020016040519081016040528093929190818152602001838380828437600092019190915250929594936020810193503591505064010000000081111561023957600080fd5b82018360208201111561024b57600080fd5b8035906020019184600183028401116401000000008311171561026d57600080fd5b91908080601f0160208091040260200160405190810160405280939291908181526020018383808284376000920191909152509295506105d2945050505050565b005b3480156102bc57600080fd5b50610363600480360360208110156102d357600080fd5b8101906020810181356401000000008111156102ee57600080fd5b82018360208201111561030057600080fd5b8035906020019184600183028401116401000000008311171561032257600080fd5b91908080601f016020809104026020016040519081016040528093929190818152602001838380828437600092019190915250929550610647945050505050565b60408051918252519081900360200190f35b34801561038157600080fd5b506103636004803603608081101561039857600080fd5b8101906020810181356401000000008111156103b357600080fd5b8201836020820111156103c557600080fd5b803590602001918460018302840111640100000000831117156103e757600080fd5b91908080601f016020809104026020016040519081016040528093929190818152602001838380828437600092019190915250929594936020810193503591505064010000000081111561043a57600080fd5b82018360208201111561044c57600080fd5b8035906020019184600183028401116401000000008311171561046e57600080fd5b91908080601f01602080910402602001604051908101604052809392919081815260200183838082843760009201919091525092959493602081019350359150506401000000008111156104c157600080fd5b8201836020820111156104d357600080fd5b803590602001918460018302840111640100000000831117156104f557600080fd5b91908080601f016020809104026020016040519081016040528093929190818152602001838380828437600092019190915250929594936020810193503591505064010000000081111561054857600080fd5b82018360208201111561055a57600080fd5b8035906020019184600183028401116401000000008311171561057c57600080fd5b91908080601f0160208091040260200160405190810160405280939291908181526020018383808284376000920191909152509295506106af945050505050565b3480156105c957600080fd5b50610363610807565b6105de848484846106af565b6001836040518082805190602001908083835b602083106106105780518252601f1990920191602091820191016105f1565b51815160209384036101000a6000190180199092169116179052920194855250604051938490030190922092909255505050505050565b60006001826040518082805190602001908083835b6020831061067b5780518252601f19909201916020918201910161065c565b51815160209384036101000a6000190180199092169116179052920194855250604051938490030190922054949350505050565b6000848484846040516020018085805190602001908083835b602083106106e75780518252601f1990920191602091820191016106c8565b51815160209384036101000a600019018019909216911617905287519190930192870191508083835b6020831061072f5780518252601f199092019160209182019101610710565b51815160209384036101000a600019018019909216911617905286519190930192860191508083835b602083106107775780518252601f199092019160209182019101610758565b51815160209384036101000a600019018019909216911617905285519190930192850191508083835b602083106107bf5780518252601f1990920191602091820191016107a0565b6001836020036101000a038019825116818451168082178552505050505050905001945050505050604051602081830303815290604052805190602001209050949350505050565b6000548156fea165627a7a723058201f0e11f7d15794b8180d091a1f0f07be3911f7a4d3a231b36e4bb411c77b29590029",
  "source": "//Oppretter nytt produkt\n//Hasher informasjonen\n//Lagrer hashet informasjon i mappingen \"products\"\n//Sender signal om at nytt produkt er opprettet til firebase\n//Åpner kommunikasjonskanal med Firbase\n//Sender \"product\"-informasjon til firebase\npragma solidity ^0.5.0; \n\ncontract InitializeProduct {\n    uint public productCount = 0;\n\n\n\n\n    //Tror det her må gjøres om til mapping igjen. \n    mapping(string => bytes32) private products;\n\n    function getProductById(string memory _id) public view returns(bytes32){\n        return products[_id];\n    }\n\n\n    function newProduct(string memory _batchID, string memory _productDescription, string memory _id, string memory _origin) public {\n        //The AuthiCate interface calls this smart contract function through web3, passing in the _pID and other info\n        //This will create a checkSum variable in the \"products\" array \n        products[_id] = createChecksum(_batchID, _productDescription, _id, _origin);\n    }\n\n    function createChecksum(string memory _batchID, string memory _productDescription, string memory _id, string memory _origin) public pure returns (bytes32){\n        return keccak256(abi.encodePacked(_batchID, _productDescription, _id, _origin));\n        \n    }\n\n}",
  "sourcePath": "/Users/Glende/Documents/Progg/Master/AuthiCate2/contracts/InitializeProduct.sol",
  "compiler": {
    "name": "solc",
    "version": "0.5.0+commit.1d4f565a.Emscripten.clang"
  },
  "schemaVersion": "3.0.2",
  "updatedAt": "2019-04-27T14:04:29.448Z",
  "devdoc": {
    "methods": {}
  },
  "userdoc": {
    "methods": {}
  }
}