{
  "contractName": "ProductContract",
  "abi": [
    {
      "constant": true,
      "inputs": [],
      "name": "productCount",
      "outputs": [
        {
          "name": "",
          "type": "uint256"
        }
      ],
      "payable": false,
      "stateMutability": "view",
      "type": "function",
      "signature": "0xe0f6ef87"
    },
    {
      "constant": true,
      "inputs": [
        {
          "name": "_id",
          "type": "string"
        }
      ],
      "name": "getProductById",
      "outputs": [
        {
          "name": "",
          "type": "bytes32"
        }
      ],
      "payable": false,
      "stateMutability": "view",
      "type": "function",
      "signature": "0x2352d4aa"
    },
    {
      "constant": true,
      "inputs": [
        {
          "name": "_id",
          "type": "string"
        }
      ],
      "name": "getProductHistory",
      "outputs": [
        {
          "name": "",
          "type": "bytes32[]"
        }
      ],
      "payable": false,
      "stateMutability": "view",
      "type": "function",
      "signature": "0xd4f50453"
    },
    {
      "constant": false,
      "inputs": [
        {
          "name": "_batchID",
          "type": "string"
        },
        {
          "name": "_productDescription",
          "type": "string"
        },
        {
          "name": "_id",
          "type": "string"
        },
        {
          "name": "_origin",
          "type": "string"
        },
        {
          "name": "_manufacturer",
          "type": "string"
        },
        {
          "name": "_transitPoint",
          "type": "string"
        }
      ],
      "name": "newProduct",
      "outputs": [],
      "payable": false,
      "stateMutability": "nonpayable",
      "type": "function",
      "signature": "0xd0a56938"
    },
    {
      "constant": true,
      "inputs": [
        {
          "name": "_batchID",
          "type": "string"
        },
        {
          "name": "_productDescription",
          "type": "string"
        },
        {
          "name": "_id",
          "type": "string"
        },
        {
          "name": "_origin",
          "type": "string"
        },
        {
          "name": "_manufacturer",
          "type": "string"
        },
        {
          "name": "_transitPoint",
          "type": "string"
        }
      ],
      "name": "createChecksum",
      "outputs": [
        {
          "name": "",
          "type": "bytes32"
        }
      ],
      "payable": false,
      "stateMutability": "pure",
      "type": "function",
      "signature": "0x882138b1"
    },
    {
      "constant": true,
      "inputs": [
        {
          "name": "_id",
          "type": "string"
        }
      ],
      "name": "getNumUpdates",
      "outputs": [
        {
          "name": "",
          "type": "uint256"
        }
      ],
      "payable": false,
      "stateMutability": "view",
      "type": "function",
      "signature": "0xd4c98985"
    },
    {
      "constant": false,
      "inputs": [
        {
          "name": "_batchID",
          "type": "string"
        },
        {
          "name": "_productDescription",
          "type": "string"
        },
        {
          "name": "_id",
          "type": "string"
        },
        {
          "name": "_origin",
          "type": "string"
        },
        {
          "name": "_transporter",
          "type": "string"
        },
        {
          "name": "_geoLocation",
          "type": "string"
        },
        {
          "name": "_time",
          "type": "string"
        },
        {
          "name": "_manufacturer",
          "type": "string"
        }
      ],
      "name": "updateProduct",
      "outputs": [
        {
          "name": "",
          "type": "bool"
        }
      ],
      "payable": false,
      "stateMutability": "nonpayable",
      "type": "function",
      "signature": "0x2152736a"
    },
    {
      "constant": true,
      "inputs": [
        {
          "name": "_batchID",
          "type": "string"
        },
        {
          "name": "_productDescription",
          "type": "string"
        },
        {
          "name": "_id",
          "type": "string"
        },
        {
          "name": "_origin",
          "type": "string"
        },
        {
          "name": "_transporter",
          "type": "string"
        },
        {
          "name": "_geoLocation",
          "type": "string"
        },
        {
          "name": "_time",
          "type": "string"
        },
        {
          "name": "_manufacturer",
          "type": "string"
        }
      ],
      "name": "updateChecksum",
      "outputs": [
        {
          "name": "",
          "type": "bytes32"
        }
      ],
      "payable": false,
      "stateMutability": "pure",
      "type": "function",
      "signature": "0xe5389c72"
    }
  ],
  "bytecode": "0x60806040526000805534801561001457600080fd5b50611aef806100246000396000f3fe60806040526004361061008d5763ffffffff7c01000000000000000000000000000000000000000000000000000000006000350416632152736a81146100925780632352d4aa1461050b578063882138b1146105d0578063d0a5693814610926578063d4c9898514610c7e578063d4f5045314610d31578063e0f6ef8714610e34578063e5389c7214610e49575b600080fd5b34801561009e57600080fd5b506104f760048036036101008110156100b657600080fd5b8101906020810181356401000000008111156100d157600080fd5b8201836020820111156100e357600080fd5b8035906020019184600183028401116401000000008311171561010557600080fd5b91908080601f016020809104026020016040519081016040528093929190818152602001838380828437600092019190915250929594936020810193503591505064010000000081111561015857600080fd5b82018360208201111561016a57600080fd5b8035906020019184600183028401116401000000008311171561018c57600080fd5b91908080601f01602080910402602001604051908101604052809392919081815260200183838082843760009201919091525092959493602081019350359150506401000000008111156101df57600080fd5b8201836020820111156101f157600080fd5b8035906020019184600183028401116401000000008311171561021357600080fd5b91908080601f016020809104026020016040519081016040528093929190818152602001838380828437600092019190915250929594936020810193503591505064010000000081111561026657600080fd5b82018360208201111561027857600080fd5b8035906020019184600183028401116401000000008311171561029a57600080fd5b91908080601f01602080910402602001604051908101604052809392919081815260200183838082843760009201919091525092959493602081019350359150506401000000008111156102ed57600080fd5b8201836020820111156102ff57600080fd5b8035906020019184600183028401116401000000008311171561032157600080fd5b91908080601f016020809104026020016040519081016040528093929190818152602001838380828437600092019190915250929594936020810193503591505064010000000081111561037457600080fd5b82018360208201111561038657600080fd5b803590602001918460018302840111640100000000831117156103a857600080fd5b91908080601f01602080910402602001604051908101604052809392919081815260200183838082843760009201919091525092959493602081019350359150506401000000008111156103fb57600080fd5b82018360208201111561040d57600080fd5b8035906020019184600183028401116401000000008311171561042f57600080fd5b91908080601f016020809104026020016040519081016040528093929190818152602001838380828437600092019190915250929594936020810193503591505064010000000081111561048257600080fd5b82018360208201111561049457600080fd5b803590602001918460018302840111640100000000831117156104b657600080fd5b91908080601f0160208091040260200160405190810160405280939291908181526020018383808284376000920191909152509295506112ae945050505050565b604080519115158252519081900360200190f35b34801561051757600080fd5b506105be6004803603602081101561052e57600080fd5b81019060208101813564010000000081111561054957600080fd5b82018360208201111561055b57600080fd5b8035906020019184600183028401116401000000008311171561057d57600080fd5b91908080601f0160208091040260200160405190810160405280939291908181526020018383808284376000920191909152509295506113b9945050505050565b60408051918252519081900360200190f35b3480156105dc57600080fd5b506105be600480360360c08110156105f357600080fd5b81019060208101813564010000000081111561060e57600080fd5b82018360208201111561062057600080fd5b8035906020019184600183028401116401000000008311171561064257600080fd5b91908080601f016020809104026020016040519081016040528093929190818152602001838380828437600092019190915250929594936020810193503591505064010000000081111561069557600080fd5b8201836020820111156106a757600080fd5b803590602001918460018302840111640100000000831117156106c957600080fd5b91908080601f016020809104026020016040519081016040528093929190818152602001838380828437600092019190915250929594936020810193503591505064010000000081111561071c57600080fd5b82018360208201111561072e57600080fd5b8035906020019184600183028401116401000000008311171561075057600080fd5b91908080601f01602080910402602001604051908101604052809392919081815260200183838082843760009201919091525092959493602081019350359150506401000000008111156107a357600080fd5b8201836020820111156107b557600080fd5b803590602001918460018302840111640100000000831117156107d757600080fd5b91908080601f016020809104026020016040519081016040528093929190818152602001838380828437600092019190915250929594936020810193503591505064010000000081111561082a57600080fd5b82018360208201111561083c57600080fd5b8035906020019184600183028401116401000000008311171561085e57600080fd5b91908080601f01602080910402602001604051908101604052809392919081815260200183838082843760009201919091525092959493602081019350359150506401000000008111156108b157600080fd5b8201836020820111156108c357600080fd5b803590602001918460018302840111640100000000831117156108e557600080fd5b91908080601f0160208091040260200160405190810160405280939291908181526020018383808284376000920191909152509295506114a3945050505050565b34801561093257600080fd5b50610c7c600480360360c081101561094957600080fd5b81019060208101813564010000000081111561096457600080fd5b82018360208201111561097657600080fd5b8035906020019184600183028401116401000000008311171561099857600080fd5b91908080601f01602080910402602001604051908101604052809392919081815260200183838082843760009201919091525092959493602081019350359150506401000000008111156109eb57600080fd5b8201836020820111156109fd57600080fd5b80359060200191846001830284011164010000000083111715610a1f57600080fd5b91908080601f0160208091040260200160405190810160405280939291908181526020018383808284376000920191909152509295949360208101935035915050640100000000811115610a7257600080fd5b820183602082011115610a8457600080fd5b80359060200191846001830284011164010000000083111715610aa657600080fd5b91908080601f0160208091040260200160405190810160405280939291908181526020018383808284376000920191909152509295949360208101935035915050640100000000811115610af957600080fd5b820183602082011115610b0b57600080fd5b80359060200191846001830284011164010000000083111715610b2d57600080fd5b91908080601f0160208091040260200160405190810160405280939291908181526020018383808284376000920191909152509295949360208101935035915050640100000000811115610b8057600080fd5b820183602082011115610b9257600080fd5b80359060200191846001830284011164010000000083111715610bb457600080fd5b91908080601f0160208091040260200160405190810160405280939291908181526020018383808284376000920191909152509295949360208101935035915050640100000000811115610c0757600080fd5b820183602082011115610c1957600080fd5b80359060200191846001830284011164010000000083111715610c3b57600080fd5b91908080601f016020809104026020016040519081016040528093929190818152602001838380828437600092019190915250929550611691945050505050565b005b348015610c8a57600080fd5b506105be60048036036020811015610ca157600080fd5b810190602081018135640100000000811115610cbc57600080fd5b820183602082011115610cce57600080fd5b80359060200191846001830284011164010000000083111715610cf057600080fd5b91908080601f01602080910402602001604051908101604052809392919081815260200183838082843760009201919091525092955061171e945050505050565b348015610d3d57600080fd5b50610de460048036036020811015610d5457600080fd5b810190602081018135640100000000811115610d6f57600080fd5b820183602082011115610d8157600080fd5b80359060200191846001830284011164010000000083111715610da357600080fd5b91908080601f01602080910402602001604051908101604052809392919081815260200183838082843760009201919091525092955061178b945050505050565b60408051602080825283518183015283519192839290830191858101910280838360005b83811015610e20578181015183820152602001610e08565b505050509050019250505060405180910390f35b348015610e4057600080fd5b506105be611839565b348015610e5557600080fd5b506105be6004803603610100811015610e6d57600080fd5b810190602081018135640100000000811115610e8857600080fd5b820183602082011115610e9a57600080fd5b80359060200191846001830284011164010000000083111715610ebc57600080fd5b91908080601f0160208091040260200160405190810160405280939291908181526020018383808284376000920191909152509295949360208101935035915050640100000000811115610f0f57600080fd5b820183602082011115610f2157600080fd5b80359060200191846001830284011164010000000083111715610f4357600080fd5b91908080601f0160208091040260200160405190810160405280939291908181526020018383808284376000920191909152509295949360208101935035915050640100000000811115610f9657600080fd5b820183602082011115610fa857600080fd5b80359060200191846001830284011164010000000083111715610fca57600080fd5b91908080601f016020809104026020016040519081016040528093929190818152602001838380828437600092019190915250929594936020810193503591505064010000000081111561101d57600080fd5b82018360208201111561102f57600080fd5b8035906020019184600183028401116401000000008311171561105157600080fd5b91908080601f01602080910402602001604051908101604052809392919081815260200183838082843760009201919091525092959493602081019350359150506401000000008111156110a457600080fd5b8201836020820111156110b657600080fd5b803590602001918460018302840111640100000000831117156110d857600080fd5b91908080601f016020809104026020016040519081016040528093929190818152602001838380828437600092019190915250929594936020810193503591505064010000000081111561112b57600080fd5b82018360208201111561113d57600080fd5b8035906020019184600183028401116401000000008311171561115f57600080fd5b91908080601f01602080910402602001604051908101604052809392919081815260200183838082843760009201919091525092959493602081019350359150506401000000008111156111b257600080fd5b8201836020820111156111c457600080fd5b803590602001918460018302840111640100000000831117156111e657600080fd5b91908080601f016020809104026020016040519081016040528093929190818152602001838380828437600092019190915250929594936020810193503591505064010000000081111561123957600080fd5b82018360208201111561124b57600080fd5b8035906020019184600183028401116401000000008311171561126d57600080fd5b91908080601f01602080910402602001604051908101604052809392919081815260200183838082843760009201919091525092955061183f945050505050565b6000806001886040518082805190602001908083835b602083106112e35780518252601f1990920191602091820191016112c4565b51815160209384036101000a6000190180199092169116179052920194855250604051938490030190922054929092111591506113a99050576001876040518082805190602001908083835b6020831061134e5780518252601f19909201916020918201910161132f565b51815160209384036101000a60001901801990921691161790529201948552506040519384900301909220915061138d90508a8a8a8a8a8a8a8a61183f565b81546001818101845560009384526020909320015590506113ad565b5060005b98975050505050505050565b60006001826040518082805190602001908083835b602083106113ed5780518252601f1990920191602091820191016113ce565b6001836020036101000a0380198251168184511680821785525050505050509050019150509081526020016040518091039020600180846040518082805190602001908083835b602083106114535780518252601f199092019160209182019101611434565b51815160209384036101000a600019018019909216911617905292019485525060405193849003019092205484549390039283109150611491905057fe5b90600052602060002001549050919050565b60008686868686866040516020018087805190602001908083835b602083106114dd5780518252601f1990920191602091820191016114be565b51815160209384036101000a600019018019909216911617905289519190930192890191508083835b602083106115255780518252601f199092019160209182019101611506565b51815160209384036101000a600019018019909216911617905288519190930192880191508083835b6020831061156d5780518252601f19909201916020918201910161154e565b51815160209384036101000a600019018019909216911617905287519190930192870191508083835b602083106115b55780518252601f199092019160209182019101611596565b51815160209384036101000a600019018019909216911617905286519190930192860191508083835b602083106115fd5780518252601f1990920191602091820191016115de565b51815160209384036101000a600019018019909216911617905285519190930192850191508083835b602083106116455780518252601f199092019160209182019101611626565b6001836020036101000a03801982511681845116808217855250505050505090500196505050505050506040516020818303038152906040528051906020012090509695505050505050565b6001846040518082805190602001908083835b602083106116c35780518252601f1990920191602091820191016116a4565b51815160209384036101000a60001901801990921691161790529201948552506040519384900301909220915061170090508787878787876114a3565b81546001810183556000928352602090922090910155505050505050565b6000600180836040518082805190602001908083835b602083106117535780518252601f199092019160209182019101611734565b51815160209384036101000a600019018019909216911617905292019485525060405193849003019092205492909203949350505050565b60606001826040518082805190602001908083835b602083106117bf5780518252601f1990920191602091820191016117a0565b51815160209384036101000a60001901801990921691161790529201948552506040805194859003820185208054808402870184019092528186529350915083018282801561182d57602002820191906000526020600020905b815481526020019060010190808311611819575b50505050509050919050565b60005481565b600088888888888888886040516020018089805190602001908083835b6020831061187b5780518252601f19909201916020918201910161185c565b51815160209384036101000a60001901801990921691161790528b5191909301928b0191508083835b602083106118c35780518252601f1990920191602091820191016118a4565b51815160209384036101000a60001901801990921691161790528a5191909301928a0191508083835b6020831061190b5780518252601f1990920191602091820191016118ec565b51815160209384036101000a600019018019909216911617905289519190930192890191508083835b602083106119535780518252601f199092019160209182019101611934565b51815160209384036101000a600019018019909216911617905288519190930192880191508083835b6020831061199b5780518252601f19909201916020918201910161197c565b51815160209384036101000a600019018019909216911617905287519190930192870191508083835b602083106119e35780518252601f1990920191602091820191016119c4565b51815160209384036101000a600019018019909216911617905286519190930192860191508083835b60208310611a2b5780518252601f199092019160209182019101611a0c565b51815160209384036101000a600019018019909216911617905285519190930192850191508083835b60208310611a735780518252601f199092019160209182019101611a54565b6001836020036101000a038019825116818451168082178552505050505050905001985050505050505050506040516020818303038152906040528051906020012090509897505050505050505056fea165627a7a7230582025f7ea27e1881d14192bd1cdb9c9fdcb918b0fb3c71a67d037e6e5c4fbd6d5530029",
  "source": "//Oppretter nytt produkt\n//Hasher informasjonen\n//Lagrer hashet informasjon i mappingen \"products\"\n//Sender signal om at nytt produkt er opprettet til firebase\n//pner kommunikasjonskanal med Firbase\n//Sender \"product\"-informasjon til firebase\npragma solidity ^0.5.0; \n\ncontract ProductContract {\n    uint public productCount = 0;\n\n\n    mapping(string => bytes32[]) private products;\n\n    function getProductById(string memory _id) public view returns(bytes32){\n        return products[_id][products[_id].length-1];\n    }\n\n    function getProductHistory(string memory _id) public view returns(bytes32[] memory){\n        return products[_id];\n    }\n\n    function newProduct(string memory _batchID, string memory _productDescription, string memory _id, string memory _origin, string memory _manufacturer, string memory _transitPoint) public {\n        //Legge inn 'if products[_id].length == 0. Man kan kun oprette nytt produkt om det ikke allerede er oppdater\n        products[_id].push(createChecksum(_batchID, _productDescription, _id, _origin, _manufacturer, _transitPoint));\n    }\n\n    function createChecksum(string memory _batchID, string memory _productDescription, string memory _id, string memory _origin, string memory _manufacturer, string memory _transitPoint) public pure returns (bytes32){\n        return keccak256(abi.encodePacked(_batchID, _productDescription, _id, _origin, _manufacturer, _transitPoint));\n        \n    }\n\n    /*\n    Is called upon when a user scans a QR-code in \"write-mode\".\n    When called upon, it looks at the _pID of the {\"product.data\"}. \n    The information is hashed, and checked against the checksum \n    (value of the _pID key in products mapping). \n    This is in order to ensure that the information you are updating, are in fact authentic. \n    THis can be done simply by calling the \"authenticate(data)\"-function. \n\n    - If the _pID is found in the products mapping, the old entry is deleted. \n    (It might emit information to the front end, saying \"Authentic product - entering update mode\")\n        - The new information, passed to this SC by the front end, is then hashed,\n          and a new entry is pushed to the mapping. \n        - Firebase is updated with the same information, the same way its done in createProductOnFB, this function could \n            be abstracted into a helper-class, if the parameters will allow it.  \n\n    If the _pID is not found in the mapping, it means that the product is not registered in the database.\n        - This in turn means that it is not possible to update the product. \n        - The user is notified that the product is not currently registered, and has to be before updating.\n\n    */\n\n    //Updates the product\n    function getNumUpdates(string memory _id) public view returns (uint) {\n        return products[_id].length-1;\n    }\n    //Updates the product if product instance exists, returns true if updated, false otherwise\n    function updateProduct(string memory _batchID, string memory _productDescription, string memory _id, string memory _origin, string memory _transporter, string memory _geoLocation, string memory _time, string memory _manufacturer) public returns (bool) {\n        if(products[_id].length > 0){\n            products[_id].push(updateChecksum(_batchID, _productDescription, _id, _origin, _transporter, _geoLocation, _time, _manufacturer));\n            return true;\n        }\n        return false; \n    }\n\n    function updateChecksum(string memory _batchID, string memory _productDescription, string memory _id, string memory _origin,  string memory _transporter, string memory _geoLocation, string memory _time, string memory _manufacturer) public pure returns (bytes32){\n        return keccak256(abi.encodePacked(_batchID, _productDescription, _id, _origin, _transporter, _geoLocation, _time, _manufacturer));\n    }\n}",
  "sourcePath": "/Users/Glende/Documents/Progg/Master/AuthiCate/contracts/ProductContract.sol",
  "compiler": {
    "name": "solc",
    "version": "0.5.0+commit.1d4f565a.Emscripten.clang"
  },
  "schemaVersion": "3.0.2",
  "updatedAt": "2019-05-01T16:09:05.511Z",
  "devdoc": {
    "methods": {}
  },
  "userdoc": {
    "methods": {}
  }
}